:100000006F00207E000000008E01000090010000C3
:1000100000000000000000000000000000000000E0
:1000200000000000000000000000000000000000D0
:10003000E007000000000000E007000000000000F2
:10004000E0070000E0070000E0070000E007000014
:10005000E0070000E0070000E0070000E007000004
:10006000E0070000E0070000E0070000E0070000F4
:10007000E0070000E0070000E0070000E0070000E4
:10008000D2010000E0070000E0070000E0070000E8
:10009000E0070000E00700009201000000000000FF
:1000A000511126C022C206C4828282441244A24058
:1000B000310182802A86014593F6150091C232955E
:1000C00085810606F5F9828000000000634E050276
:1000D00063C305042E86AA857D5515C285466378BF
:1000E000B6006356C00006068606E36CB6FE014500
:1000F00063E4C500918D558D85820582F5FA828075
:100100008682C93F2E8582823305A04063D70500D1
:10011000B305B040C1B7B305B0408682653F330533
:10012000A0408282868263C70500634905005D376F
:100130002E858282B305B040E35B05FE3305A04007
:10014000513F3305B04082820000B707002003C74B
:1001500087039306E00F9387870301456318D7024F
:1001600094336395E602D82301C78D466310D70206
:100170009C271307F0040145FD1793F7F70F6367FA
:10018000F7000567130707DDBA978823828001A06F
:1001900001A0854537050040EF00B0118547631584
:1001A000F502854537050040EF00301203C7018195
:1001B0009387018101CF0147014693050008371558
:1001C000014098A3EF0020727300203005470546D8
:1001D000EDB7711122C03744014093055052130509
:1001E0000480EF00502131C913050480EF00302056
:1001F00013841181142005471375F50F938711811E
:100200006381E60499C60947638EE604230004006F
:1002100029A89307E00F631AF500B7070020F956E5
:10022000238CD70218A0A387E180374501409305AE
:10023000505213050580EF00D01F024411017300D6
:1002400020301307E00F631CE500B7070020795743
:10025000A38CE7028947A387F1801CA0F9B723800C
:100260000700E1B71387F18014233946E369D6FE0E
:10027000938716001CA3B707002093878703B697C0
:1002800088A39307D00FE312F5FAC13523AAA18002
:10029000B5BFEFF2FFE083A7418151476387E71CB9
:1002A0006346F70631476382E7226349F70019473F
:1002B000638CE72829476381E726C5BB3D47638EEA
:1002C000E71C4547E39BE7FE37140140014685459F
:1002D00013050440EF0020610546914513050440D5
:1002E000EF0060600546A14513050440EF00A05FE4
:1002F0000146C14513050440EF00E05E0146854517
:1003000037150140EF00205E054691AA1307C00390
:100310006383E70E6341F70479476386E7101307A9
:100320008002E39CE7F83714014005468545130534
:100330000440552B05469145130504406D230146A5
:10034000A1451305044045230146C145130504405A
:10035000592B0546ADA8130700056383E70413076F
:10036000000AE39CE7F43714014005468545130570
:100370000440952B0146914513050440AD230146E9
:10038000A1451305044085230146C14513050440DA
:10039000992B0546854537150140B12301462DA807
:1003A0003714014001468545130504402D2B0546B1
:1003B000914513050440052B0146A1451305044052
:1003C0001D230146C14513050440312B01468545D7
:1003D00037150140092B0546894537150140212372
:1003E0000146914537150140FD290146A1453715C4
:1003F0000140D529D9B5371401400146854513057B
:100400000440D5210146914513050440E9290146E0
:10041000A14513050440C1290146C1451305044007
:10042000D921014685BF3714014001468545130592
:100430000440552901469145130504406D210546A8
:10044000A1451305044045210146C145130504405B
:1004500059290146854537150140712101468945D5
:100460003715014049210546ADBF37140140054607
:10047000854513050440852901469145130504402F
:100480009D210546A14513050440B1290146C145FA
:10049000130504408929054675BF371401400546F8
:1004A0008545130504408121054691451305044007
:1004B0001D290546A1451305044035210146C145C6
:1004C000130504400D2105461DBD371401400146AA
:1004D0008545130504400129014691451305044053
:1004E00019210146A14513050440F52E0546C145D5
:1004F00013050440CD2E0146854537150140E526FC
:100500000146894537150140F92E014691453715B9
:100510000140D12E0546D9BD371401400546854519
:1005200013050440C9260146914513050440652E74
:100530000146A145130504407D260546C145130526
:100540000440552605464DBF3714014001468545F8
:1005500013050440492E05469145130504406126C4
:100560000146A14513050440BD2E0546C1451305AE
:100570000440952E0146854537150140AD260546B8
:1005800049B7EFF2FFB131112E84AA8485450545A4
:1005900071212C003705004064866084231501001A
:1005A0002317010059290546854537050040CD2907
:1005B000930760527C8095475C810A8585473EC2DF
:1005C0001D2E854537050040C1215101F9BCEFF2D0
:1005D0003FAD1301C1FA85451305000302C002C2F5
:1005E00002C43129C14785653EC4130680048D4786
:1005F000938585D8680064003EC22684652D5A2004
:1006000008408A85788095242104DC08E319F4FEEB
:100610001305800C9D25E000CE2488440546A104E6
:10062000D924E31B94FE1301410541B4EFF25FA707
:1006300011651301C1FD85451305050202C402C6FB
:1006400002C802CA02CC02CE02D002C002C2452EAB
:10065000371401408D47930400023EC62C00E14749
:100660001305044064843EC80924930700047C8475
:100670002C009147130504403EC8C52A89673744BA
:100680000140938707583ECA4C08B7070C00130572
:1006900004803ECE02CC2310010235290546930585
:1006A000505213050480092B85475C810A858547D4
:1006B0003EC264808924854513050480DD21130131
:1006C0004102E5B2EFF2DF9D05451D246520A52B13
:1006D000FD3DA93F89659385F5F31305301F553519
:1006E0004D3E2945592BEDBFEFF29F9B3714024039
:1006F0001C403707FFF8414593E717001CC05C40DA
:10070000F98F5CC01C403707F7FE7D17F98F1CC0BE
:100710001C403707FCFF7D17F98F1CC05C404177F8
:100720007D17F98F5CC0B7079F001CC4392C1C4C87
:1007300093E707021CCCB717014003A70740938635
:1007400007401377F7F023A0E74003A7074013679C
:10075000070823A0E74089479CCAB727024098436F
:10076000719B98C3984398C35C4093E707025CC0B1
:100770006FF0BF93EFF2DF92371702405C4337040C
:1007800000209146B18B130404016385D700A14674
:100790006382D704B7376E01938707601CC0B71612
:1007A0000240DC420840918313F7F700B7070020AE
:1007B00093870700BA978C23DC4293F5F50F93F7E4
:1007C00007083357B50081E7EFF0DF902A8718C09C
:1007D0006FF0BF8D5C43B777DC02938707C07DBFA6
:1007E00001A09701002093816105138181FC170509
:1007F000000013052563970500209385A580170643
:1008000000201306A68363FAC5008322050023A0F7
:10081000550011059105E3EAC5FE170500201305F3
:10082000E581938501826377B500232005001105DA
:10083000E36DB5FEB7220000938202887390023008
:100840008D427390428097F2FFFF9382A27B93E2E6
:10085000320073905230EFF03FE99702000093822C
:10086000A2E67390123473002030944593F706018A
:1008700093F2F60081C7DC41B3E2F20083D30500B6
:1008800093F7F30FA5C303230500611122C226C00D
:100890008147130480029304800405473316F70050
:1008A00033F7C3006312E602939527003D473317E1
:1008B000B7001347F7FF33736700B395B20033E314
:1008C0006500639D860050C985072147E397E7FCD3
:1008D000124423206500824421018280E39696FE23
:1008E00010C9DDB7828019C20CC982804CC98280D0
:1008F00023ACA180828083A68181854718216390E3
:10090000F6021C31639CD7023C219A0793E707F853
:10091000B7E600E093F7F70FBA962380F6408546D6
:10092000935757003397E600544189CE93870704C5
:100930008A07B7E600E0B69798C38280EDF33C21C2
:100940009A07F9B793870706E5B7371702401C43A4
:100950000E0593F777F05D8D08C38280EFF24FF4B8
:10096000371702405C4391462A84B18B6385D700D8
:10097000A1466380D708B7376E01938707601CC014
:10098000B7160240DC42918313F7F700B707002047
:1009900093878702BA978C23DC42184093F5F50FB2
:1009A00093F707083355B70081E73A85EFF08FF2E8
:1009B00048C008C448C4B7170240DC438D46AD8325
:1009C000FD8B13D737008A07F18BD98F13F63701C8
:1009D00013F7370063F4C600138747FFB7070020FB
:1009E00093874701BA978C23EFF0CFEE08C86FF0DA
:1009F000CFEB5C43B777DC02938707C049B799C553
:100A0000371702401C4F5D8D08CF8280B717024018
:100A1000984F1345F5FF798D88CF828099C5371798
:100A200002405C4F5D8D48CF8280B7170240D84F9F
:100A30001345F5FF798DC8CF82801E2137370140DD
:100A4000130707C0C207C1836306E50037070040EC
:100A50006316E500BA2193F7F7F8D98FFA2193F7D7
:100A6000F7CFC207C183D98F1EA1DE215EB59E21BB
:100A70001EB5B7370140938707C06314F5009C2566
:100A80001EB985475EA982801E2189C593E717009C
:100A90001EA18280C207C183F99BC207C183CDBF5B
:100AA0005E2501C6DD8D4EA5828093C5F5FFFD8DC7
:100AB000DDBF1E294A25ED8F4205418189C76D8D15
:100AC0003335A00082800145828093C5F5FFC205C1
:100AD000C1810EA98280EFF2AFDC1629F577FD17F0
:100AE000F58FF621DA252111D58F1EA95625FD7720
:100AF0009387379FF58FD6212A842EC0D58F9625D0
:100B0000D58FB625D58F5EA55E29C207C18393F721
:100B1000F7CF5D8F5AA948009135B74701409387B9
:100B2000078082456312F406C2475A2413951700C2
:100B30003E9542070E0541873E958C416358070458
:100B40008605EFF02FD9930540062AC0EFF08FD825
:100B5000824793144500930540063E85EFF04FDA37
:100B60005E24C207C18763D507020E0593054006C0
:100B700013052503EFF00FD61D89C98CC204C1806F
:100B800006A461016FF06FD2B24745B78A0555BF21
:100B900012059305400613052503EFF0AFD33D89F9
:100BA000E9BF91C55E250967D98F5EA582805A2568
:100BB000F977FD17F98FD5BF13F7F50F8547158323
:100BC000B395B7006319F7009307C500984301CEAA
:100BD000D98D8CC38280894693074501E318D7FEDF
:100BE00093070501E5B793C5F5FFF98DDDB74A21F8
:100BF0001375F51F828013F7F50F85461583B3979C
:100C0000B6006311D7025A25F98F1A210145420710
:100C1000418381CB0545A181B315B5006D8F333577
:100C2000E000828089466314D7001A29F1BF5A294F
:100C3000E1BFA1818547B397B70093C7F7FFC2070C
:100C4000C1831EA18280EFF2AFC5B707002003A5C4
:100C50000701B7157A0093850520EFF0AFC713752C
:100C6000F50F238FA18093175500898F8A073E9532
:100C70000E05239EA1806FF04FC3EFF26FC237F4D1
:100C800000E05C40AA85F99B5CC003D5C181EFF010
:100C90006FC208C8232404001C4093E717001CC03F
:100CA000B7F700E0D843058B75DF9843799B98C36D
:100CB0006FF0AFBFB3C7A5008D8B3307C50081E7C9
:100CC0008D4763E7C702AA87637EE50A94218507FB
:100CD0008505A38FD7FEE3EBE7FE8280942185078D
:100CE0008505A38FD7FEE3EBE7FE02441101828066
:100CF00093763500AA8789CA942185078505A38F35
:100D0000D7FE93F63700C5BF9376C7FF138606FE5E
:100D100063F5C706711122C0C04903A3050083A370
:100D20008500C0CB804D23A0670003A3450080CF82
:100D3000C04D23A2670083A2C50003A305019385CC
:100D40004502C0CF03A4C5FF23A4770023A6570004
:100D500023A867009387470223AE87FEE3EEC7FA16
:100D6000E3F3D7F890419107910523AEC7FECDBFBD
:100D700090419107910523AEC7FEE3EBD7FEE3E771
:100D8000E7F48280828000000010014080000000B3
:100D900000140140010000000014014004000000A4
:100DA0000014014008000000001401401000000081
:100DB000001001400100000000100140020000008E
:100DC0000010014004000000001001400800000075
:100DD000A0A050503C002800000000000000001EB1
:100DE00000000014000000110000000000000000DE
:100DF0000F00000C0000000A0A00000000000000C4
:100E000000000000000000000000000000000000E2
:100E100000000000000000000000000000000006CC
:100E2000010203040506070801020304050607087A
:100E300000127A000204060804080C10081018209A
:100E4000102030402040608001020304050607089E
:080E5000010203040506070876
:00000001FF
